:020000040040BA
:10000000C0E4402011364000BD364000BD364000FF
:10001000BD364000BD364000BD3640000000000047
:10002000000000000000000000000000C1034000CC
:10003000BD36400000000000A10540000906400058
:10004000BD364000BD364000BD364000BD364000E4
:10005000BD364000BD364000BD364000BD364000D4
:10006000BD36400000000000BD364000BD364000F7
:10007000BD364000BD364000BD364000BD364000B4
:10008000BD364000BD364000BD364000BD364000A4
:10009000BD364000BD364000BD364000353540001D
:1000A00099354000BD364000BD364000BD364000A9
:1000B000BD364000BD364000BD364000BD36400074
:1000C000BD364000BD364000BD364000BD36400064
:1000D000BD364000BD364000BD364000BD36400054
:1000E000BD364000BD364000BD364000BD36400044
:1000F000BD364000BD364000BD364000BD36400034
:10010000BD364000BD364000BD364000BD36400023
:10011000BD364000BD364000000000000000000079
:10012000BD364000BD364000BD364000BD36400003
:10013000BD36400000000000BD364000BD36400026
:1001400010B5054C237833B9044B13B10448AFF311
:1001500000800123237010BDAC0840200000000087
:10016000A0AF4000084B10B51BB108490848AFF3D9
:1001700000800848036803B910BD074B002BFBD073
:10018000BDE81040184700BF00000000B008402044
:10019000A0AF4000A0AF40000000000080B483B0DA
:1001A00000AF78607B6803F108027B685A607B6867
:1001B0004FF0FF329A607B6803F108027B68DA60D7
:1001C0007B6803F108027B681A617B6800221A6071
:1001D00000BF0C37BD465DF8047B704780B483B028
:1001E00000AF78607B6800221A6100BF0C37BD4603
:1001F0005DF8047B704700BF80B485B000AF7860C5
:1002000039607B685B68FB603B68FA685A60FB6832
:100210009A683B689A60FB689B683A685A60FB681A
:100220003A689A603B687A681A617B681B685A1C56
:100230007B681A6000BF1437BD465DF8047B7047C9
:1002400080B485B000AF786039603B681B68BB60E4
:10025000BB68B3F1FF3F03D17B681B69FB600CE017
:100260007B680833FB6002E0FB685B68FB60FB684F
:100270005B681A68BB689A42F6D9FB685A683B68A3
:100280005A603B685B683A689A603B68FA689A60B3
:10029000FB683A685A603B687A681A617B681B6839
:1002A0005A1C7B681A6000BF1437BD465DF8047B9A
:1002B000704700BF80B485B000AF78607B681B6971
:1002C000FB607B685B687A6892689A607B689B6871
:1002D0007A6852685A60FB685A687B689A4203D110
:1002E0007B689A68FB685A607B6800221A61FB6829
:1002F0001B685A1EFB681A60FB681B681846143797
:10030000BD465DF8047B704780B485B000AFF860EF
:10031000B9607A60FB68043BFB60FB684FF0807259
:100320001A60FB68043BFB60BB6823F00102FB68BA
:100330001A60FB68043BFB600C4AFB681A60FB68B0
:10034000143BFB607A68FB681A60FB68043BFB6047
:10035000FB686FF002021A60FB68203BFB60FB68E1
:1003600018461437BD465DF8047B704771034000A2
:1003700080B483B000AF0E4B1B68B3F1FF3F0BD0CE
:100380004FF0800372B683F31188BFF36F8FBFF312
:100390004F8F62B63B60FEE74FF0800372B683F387
:1003A0001188BFF36F8FBFF34F8F62B67B60FEE79C
:1003B00000004020000000000000000000000000DD
:1003C000074B19680868B0E8F04F80F30988BFF35D
:1003D0006F8F4FF0000080F311887047AFF30080FB
:1003E000FCC0402000BF00BF06480068006880F3E2
:1003F000088862B661B6BFF34F8FBFF36F8F00DF1F
:1004000000BF00BF08ED00E080B584B000AF2C4B0A
:10041000FB60FB681B78DBB2BB60FB68FF221A70D5
:10042000FB681B78DBB2FB71FB79DBB223F07F0347
:10043000DAB2244B1A70244B07221A6009E0224BCF
:100440001B68013B204A1360FB79DBB25B00DBB227
:10045000FB71FB79DBB25BB2002BF0DB1A4B1B6844
:100460001B02194A1360184B1B6803F4E063164A19
:100470001360BB68DAB2FB681A70144A134B1B682E
:1004800043F460031360114A104B1B6843F0604350
:1004900013600F4B98470F4B00221A600E4B984782
:1004A0000E4A0E4B1B6843F0404313600C4B9847B9
:1004B0000C4B9847002318461037BD4680BD00BF3F
:1004C00000E400E0CD084020D008402020ED00E00E
:1004D00051064000000040207906400034EF00E063
:1004E000E90340007103400080B483B000AF4FF0D7
:1004F000800372B683F31188BFF36F8FBFF34F8F02
:1005000062B63B600F4B1B6801330E4A13600D4B04
:100510001B68012B10D10C4B1B68DBB2002B0BD0DE
:100520004FF0800372B683F31188BFF36F8FBFF370
:100530004F8F62B67B60FEE700BF0C37BD465DF8AB
:10054000047B70470000402004ED00E080B483B0DD
:1005500000AF124B1B68002B0BD14FF0800372B61B
:1005600083F31188BFF36F8FBFF34F8F62B63B6089
:10057000FEE70A4B1B68013B084A1360074B1B68E8
:10058000002B04D100237B607B6883F3118800BFBC
:100590000C37BD465DF8047B704700BF000040206B
:1005A000EFF30980BFF36F8F154B1A681EF0100F21
:1005B00008BF20ED108A20E9F04F10604DF8043D8F
:1005C0004FF0800072B680F31188BFF34F8FBFF3F6
:1005D0006F8F62B601F0EEFC4FF0000080F31188DF
:1005E00008BC19680868B0E8F04F1EF0100F08BF8B
:1005F000B0EC108A80F30988BFF36F8F704700BF9B
:10060000FCC0402000BF00BF80B582B000AF4FF0FB
:10061000800372B683F31188BFF36F8FBFF34F8FE0
:1006200062B63B60084B98470346002B03D0074B4C
:100630004FF080521A6000237B607B6883F311883F
:1006400000BF0837BD4680BD191E400004ED00E024
:1006500080B400AF054B064A1A60064B07221A60A9
:1006600000BFBD465DF8047B704700BF14E000E0AA
:10067000DF93040010E000E0DFF80C00016841F4B3
:1006800070010160704700BF88ED00E080B485B064
:1006900000AFEFF30583FB60FB680F2B15D9184AF9
:1006A000FB6813441B78FB72164B1B78FA7A9A424C
:1006B0000BD24FF0800372B683F31188BFF36F8FB4
:1006C000BFF34F8F62B63B60FEE70F4B1B6803F42E
:1006D000E0620E4B1B689A420BD94FF0800372B652
:1006E00083F31188BFF36F8FBFF34F8F62B67B60C8
:1006F000FEE700BF1437BD465DF8047B704700BFBE
:10070000F0E300E0CD0840200CED00E0D0084020F0
:1007100080B58AB000AF78600023FB615D4B9847DD
:100720005D4B1B68002B01D15C4B98475C4B1A68F2
:100730007B681340002B40F090807B68002B1ED01C
:1007400008227B6813447B607B6803F00703002B5F
:1007500015D07B6823F0070308337B607B6803F0C8
:100760000703002B0BD04FF0800372B683F3118880
:10077000BFF36F8FBFF34F8F62B6FB60FEE77B68FE
:10078000002B6AD0474B1B687A689A4265D8464B63
:100790003B62454B1B687B6204E07B6A3B627B6A81
:1007A0001B687B627B6A5A687B689A4203D27B6AC9
:1007B0001B68002BF1D1384B1B687A6A9A424CD0E7
:1007C0003B6A1B6808221344FB617B6A1A683B6A18
:1007D0001A607B6A5A687B68D21A08235B009A42C7
:1007E00020D97A6A7B6813447B617B6903F0070335
:1007F000002B0BD04FF0800372B683F31188BFF348
:100800006F8FBFF34F8F62B6BB61FEE77B6A5A689A
:100810007B68D21A7B695A607B6A7A685A60786909
:10082000224B98471F4B1A687B6A5B68D31A1D4A94
:1008300013601C4B1A681E4B1B689A4203D2194B5B
:100840001B681B4A13607B6A5A68154B1B681A4366
:100850007B6A5A607B6A00221A60164B9847FB69D4
:10086000002B01D1144B9847FB6903F00703002BC1
:100870000BD04FF0800372B683F31188BFF36F8FF4
:10088000BFF34F8F62B63B61FEE7FB69184628371E
:10089000BD4680BD891C4000E4C040208109400065
:1008A000F0C04020E8C04020DCC04020450A4000A5
:1008B000ECC04020A51C40006143400080B586B0DC
:1008C00000AF78607B687B617B68002B4AD008238F
:1008D0005B427A6913447B617B693B613B695A687F
:1008E000224B1B681340002B0BD14FF0800372B6D4
:1008F00083F31188BFF36F8FBFF34F8F62B6BB6076
:10090000FEE73B691B68002B0BD04FF0800372B6EB
:1009100083F31188BFF36F8FBFF34F8F62B6FB6015
:10092000FEE73B695A68114B1B681340002B19D036
:100930003B691B68002B15D13B695A680B4B1B6840
:10094000DB431A403B695A60094B98473B695A6838
:10095000084B1B681344074A13603869064B9847D5
:10096000064B984700BF1837BD4680BDF0C04020F9
:10097000891C4000E8C04020450A4000A51C4000FA
:1009800080B485B000AF4FF43843BB60274BFB60A9
:10099000FB6803F00703002B0CD0FB680733FB60F8
:1009A000FB6823F00703FB60BA68FB68D31A1F4A91
:1009B0001344BB60FB687B601D4A7B6813601C4B63
:1009C00000225A607A68BB681344FB600822FB6807
:1009D0009B1AFB60FB6823F00703FB60FB68154A6A
:1009E0001360144B1B6800225A60124B1B680022D4
:1009F0001A607B683B603B68FA68D21A3B685A60B1
:100A00000C4B1A683B681A603B685B680A4A1360C3
:100A10003B685B68094A1360094B4FF000421A605B
:100A200000BF1437BD465DF8047B7047DC084020EA
:100A3000DCC04020E4C04020ECC04020E8C04020A2
:100A4000F0C0402080B485B000AF7860284BFB60D8
:100A500002E0FB681B68FB60FB681A687B689A42CF
:100A6000F7D3FB68BB60FB685B68BA681A447B68B5
:100A70009A4208D1FB685A687B685B681A44FB6835
:100A80005A60FB687B607B68BB607B685B68BA68A8
:100A90001A44FB681B689A4218D1FB681A68154B08
:100AA0001B689A420DD07B685A68FB681B685B68BC
:100AB0001A447B685A60FB681B681A687B681A6076
:100AC00008E00C4B1A687B681A6003E0FB681A6840
:100AD0007B681A60FA687B689A4202D0FB687A6881
:100AE0001A6000BF1437BD465DF8047B704700BF35
:100AF000DCC04020E4C0402080B584B000AF786006
:100B000039607B68FB60FB68002B0BD14FF08003E2
:100B100072B683F31188BFF36F8FBFF34F8F62B646
:100B2000BB60FEE7284B9847FB681A68FB68DB6BE5
:100B3000F968096C01FB03F31A44FB685A60FB680F
:100B400000229A63FB681A68FB689A60FB681A685F
:100B5000FB68DB6B013BF968096C01FB03F31A448A
:100B6000FB68DA60FB68FF2283F84420FB68FF2201
:100B700083F845203B68002B14D1FB681B69002BD0
:100B80001AD0FB6810331846104B98470346002BC9
:100B900012D00F4B4FF080521A60BFF34F8FBFF34C
:100BA0006F8F09E0FB68103318460A4B9847FB68C3
:100BB00024331846074B9847074B9847012318469C
:100BC0001037BD4680BD00BFE904400071214000E0
:100BD00004ED00E09D0140004D05400090B58BB054
:100BE00002AFF860B9601346FB71FB68002B0BD1B4
:100BF0004FF0800372B683F31188BFF36F8FBFF39A
:100C00004F8F62B63B61FEE7BB68002B02D1002329
:100C1000FB6104E0FB68BA6802FB03F3FB61FB695C
:100C2000543318460B4B9847B861BB69002B0BD067
:100C3000BB6954337B61FA79BB69009313467A69C7
:100C4000B968F868044CA047BB6918462437BD460C
:100C500090BD00BF110740005D0C400080B584B01E
:100C600000AFF860B9607A60FB70BB68002B03D1FD
:100C7000BB69BA691A6002E0BB697A681A60BB692D
:100C8000FA68DA63BB69BA681A640121B869064B6D
:100C90009847BB69FA7883F85020BB6900229A64B0
:100CA00000BF1037BD4680BDF90A400080B58EB048
:100CB00000AFF860B9607A603B6000237B63FB683B
:100CC0003B633B6B002B0BD14FF0800372B683F379
:100CD0001188BFF36F8FBFF34F8F62B6FB61FEE7E2
:100CE000BB68002B03D13B6B1B6C002B01D1012394
:100CF00000E00023002B0BD14FF0800372B683F38A
:100D00001188BFF36F8FBFF34F8F62B63B62FEE770
:100D10003B68022B03D13B6BDB6B012B01D1012321
:100D200000E00023002B0BD14FF0800372B683F359
:100D30001188BFF36F8FBFF34F8F62B67B62FEE700
:100D4000644B98470346002B02D17B68002B01D1EE
:100D5000012300E00023002B0BD14FF0800372B67B
:100D600083F31188BFF36F8FBFF34F8F62B6BB62FF
:100D7000FEE7594B98473B6B9A6B3B6BDB6B9A4298
:100D800002D33B68022B3DD13A68B968386B534BAC
:100D90009847F8623B6B9B6C002B0FD03968386B1F
:100DA0004F4B98470346002B28D04E4B4FF08052B4
:100DB0001A60BFF34F8FBFF36F8F1FE03B6B5B6A0F
:100DC000002B10D03B6B24331846474B9847034603
:100DD000002B13D0434B4FF080521A60BFF34F8F5C
:100DE000BFF36F8F0AE0FB6A002B07D03D4B4FF03B
:100DF00080521A60BFF34F8FBFF36F8F3B4B984702
:100E0000012363E07B68002B03D1384B9847002314
:100E10005CE07B6B002B06D107F114031846344BC2
:100E2000984701237B63314B9847324B98472A4BB5
:100E300098473B6B93F844305BB2B3F1FF3F03D16B
:100E40003B6B002283F844203B6B93F845305BB248
:100E5000B3F1FF3F03D13B6B002283F84520234BC6
:100E600098473A1D07F1140311461846224B98473C
:100E70000346002B24D1386B204B98470346002BA8
:100E800018D03B6B10337A68114618461C4B9847B4
:100E9000386B1C4B98471C4B98470346002B7FF43C
:100EA00068AF104B4FF080521A60BFF34F8FBFF303
:100EB0006F8F5EE7386B134B9847134B984758E793
:100EC000386B104B9847104B98470023184638371B
:100ED000BD4680BD2D254000E9044000F5134000CB
:100EE0007517400004ED00E0712140004D05400001
:100EF00041224000891C40008D22400029164000FC
:100F0000BD20400021154000A51C400080B58EB0DA
:100F100000AFF860B9607A603B60FB683B633B6B95
:100F2000002B0BD14FF0800372B683F31188BFF30F
:100F30006F8FBFF34F8F62B67B61FEE7BB68002BFC
:100F400003D13B6B1B6C002B01D1012300E000237C
:100F5000002B0BD14FF0800372B683F31188BFF3DF
:100F60006F8FBFF34F8F62B6BB61FEE73B68022B0A
:100F700003D13B6BDB6B012B01D1012300E000238C
:100F8000002B0BD14FF0800372B683F31188BFF3AF
:100F90006F8FBFF34F8F62B6FB61FEE7324B98470E
:100FA000EFF311824FF0800372B683F31188BFF321
:100FB0006F8FBFF34F8F62B63A623B613B6ABB6291
:100FC0003B6B9A6B3B6BDB6B9A4202D33B68022B09
:100FD0003ED13B6B93F8453087F827303A68B968C3
:100FE000386B224B984797F92730B3F1FF3F24D154
:100FF0003B6B9B6C002B0DD03968386B1C4B9847B2
:101000000346002B21D07B68002B1ED07B68012279
:101010001A601AE03B6B5B6A002B16D03B6B2433E3
:101020001846144B98470346002B0ED07B68002BC4
:101030000BD07B6801221A6007E097F82730013354
:10104000DBB25AB23B6B83F8452001237B6301E09E
:1010500000237B63BB6AFB62FB6A83F311887B6BB3
:1010600018463837BD4680BD8D064000F513400058
:10107000751740007121400080B58EB000AFF86058
:10108000B9607A603B6000237B63FB683B633B6B2A
:10109000002B0BD14FF0800372B683F31188BFF39E
:1010A0006F8FBFF34F8F62B6FB61FEE7BB68002B0B
:1010B00003D13B6B1B6C002B01D1012300E000230B
:1010C000002B0BD14FF0800372B683F31188BFF36E
:1010D0006F8FBFF34F8F62B63B62FEE7714B98474D
:1010E0000346002B02D17B68002B01D1012300E0D5
:1010F0000023002B0BD14FF0800372B683F31188CD
:10110000BFF36F8FBFF34F8F62B67B62FEE7664B14
:1011100098473B6B9B6BFB62FB6A002B46D03B6B9B
:10112000DB68BB62B968386B604B98473B68002B43
:1011300021D1FB6A5A1E3B6B9A633B6B1B68002BE9
:1011400004D15B4B984702463B6B5A603B6B1B6973
:10115000002B27D03B6B10331846564B984703465D
:10116000002B1FD0544B4FF080521A60BFF34F8FAB
:10117000BFF36F8F16E03B6BBA6ADA603B6B5B6A5A
:10118000002B0FD03B6B243318464A4B984703463D
:10119000002B07D0484B4FF080521A60BFF34F8F9F
:1011A000BFF36F8F454B9847012377E07B68002B97
:1011B00003D1424B9847002370E07B6B002B06D194
:1011C00007F1140318463E4B984701237B633B4BC2
:1011D00098473C4B9847344B98473B6B93F84430C7
:1011E0005BB2B3F1FF3F03D13B6B002283F8442095
:1011F0003B6B93F845305BB2B3F1FF3F03D13B6BE0
:10120000002283F845202D4B98473A1D07F114031F
:10121000114618462C4B98470346002B31D1386BAA
:101220002A4B98470346002B25D03B6B1B68002BAD
:1012300008D11D4B98473B6B5B681846244B984779
:101240001E4B98473B6B24337A6811461846214B56
:101250009847386B204B9847204B98470346002B04
:101260007FF455AF144B4FF080521A60BFF34F8F8D
:10127000BFF36F8F4BE7386B174B9847174B984767
:1012800045E7386B144B9847144B9847386B0F4B16
:1012900098470346002B3FF43AAF002318463837EF
:1012A000BD4680BD2D254000E9044000D11440001A
:1012B000752740007121400004ED00E04D0540001D
:1012C00041224000891C40008D224000F51540005D
:1012D00069254000BD20400021154000A51C4000AC
:1012E00080B58EB000AFF860B9607A60FB683B6390
:1012F0003B6B002B0BD14FF0800372B683F3118848
:10130000BFF36F8FBFF34F8F62B67B61FEE7BB68A1
:10131000002B03D13B6B1B6C002B01D1012300E0A0
:101320000023002B0BD14FF0800372B683F311889A
:10133000BFF36F8FBFF34F8F62B6BB61FEE72A4BDF
:101340009847EFF311824FF0800372B683F3118850
:10135000BFF36F8FBFF34F8F62B6FA613B61FB69DA
:10136000BB623B6B9B6B7B627B6A002B2FD03B6B22
:1013700093F8443087F82330B968386B1B4B984793
:101380007B6A5A1E3B6B9A6397F92330B3F1FF3F98
:1013900012D13B6B1B69002B16D03B6B10331846E8
:1013A000134B98470346002B0ED07B68002B0BD0C5
:1013B0007B6801221A6007E097F823300133DBB223
:1013C0005AB23B6B83F8442001237B6301E0002386
:1013D0007B63BB6AFB62FB6A83F311887B6B1846F5
:1013E0003837BD4680BD00BF8D064000D114400097
:1013F0007121400080B586B000AFF860B9607A60B6
:1014000000237B61FB689B6B3B61FB681B6C002BC3
:101410000DD1FB681B68002B4DD1FB685B6818463B
:10142000294B98477861FB6800225A6043E07B684B
:10143000002B19D1FB689868FB681B6C1A46B968C9
:10144000224B9847FB689A68FB681B6C1A44FB6840
:101450009A60FB689A68FB685B689A422BD3FB68CA
:101460001A68FB689A6026E0FB68D868FB681B6C0A
:101470001A46B968154B9847FB68DA68FB681B6C1D
:101480005B421A44FB68DA60FB68DA68FB681B6839
:101490009A4207D2FB685A68FB681B6C5B421A448D
:1014A000FB68DA607B68022B05D13B69002B02D018
:1014B0003B69013B3B613B695A1CFB689A637B6952
:1014C00018461837BD4680BD5D2640000D4D4000D2
:1014D00080B582B000AF786039607B681B6C002BF0
:1014E00018D07B68DA687B681B6C1A447B68DA600A
:1014F0007B68DA687B685B689A4203D37B681A680A
:101500007B68DA607B68D9687B681B6C1A46386830
:10151000024B984700BF0837BD4680BD0D4D4000C7
:1015200080B584B000AF78602D4B98477B6893F806
:101530004530FB731FE07B689B6C002B09D00021BA
:101540007868284B98470346002B10D0264B9847C5
:101550000DE07B685B6A002B12D07B682433184651
:10156000224B98470346002B01D01F4B9847FB7B2B
:10157000013BDBB2FB7397F90F30002BDBDC00E0A3
:1015800000BF7B68FF2283F84520194B9847144B16
:1015900098477B6893F84430BB7311E07B681B6904
:1015A000002B12D07B6810331846104B9847034627
:1015B000002B01D00C4B9847BB7B013BDBB2BB73CC
:1015C00097F90E30002BE9DC00E000BF7B68FF22BA
:1015D00083F84420064B984700BF1037BD4680BDB6
:1015E000E9044000751740005D2340007121400070
:1015F0004D05400080B584B000AF7860084B984737
:101600007B689B6B002B02D10123FB6001E0002370
:10161000FB60044B9847FB6818461037BD4680BDF9
:10162000E90440004D05400080B584B000AF78600B
:10163000094B98477B689A6B7B68DB6B9A4202D1B7
:101640000123FB6001E00023FB60044B9847FB682B
:1016500018461037BD4680BDE90440004D054000E6
:1016600080B485B000AF78607B68002B0BD14FF061
:10167000800372B683F31188BFF36F8FBFF34F8F70
:1016800062B6BB60FEE77B689A6B7B68DB6B9A4255
:1016900002D10123FB6001E00023FB60FB681846D8
:1016A0001437BD465DF8047B704700BF80B485B039
:1016B00000AF786039600023FB6014E00E4AFB68DD
:1016C00052F83330002B0BD10B49FB683A6841F8D4
:1016D0003320094AFB68DB0013447A685A6005E04E
:1016E000FB680133FB60FB68072BE7D900BF1437A9
:1016F000BD465DF8047B70477CC4402080B586B051
:1017000000AFF860B9607A60FB687B61154B984761
:101710007B6993F844305BB2B3F1FF3F03D17B693F
:10172000002283F844207B6993F845305BB2B3F123
:10173000FF3F03D17B69002283F845200A4B98477D
:101740007B699B6B002B06D17B6924337A68B9686F
:101750001846064B98477869054B984700BF1837DD
:10176000BD4680BDE90440004D0540001121400008
:101770002115400080B588B000AF786039607B6883
:101780009B6CBB610023FB61BB69002B0BD14FF04D
:10179000800372B683F31188BFF36F8FBFF34F8F4F
:1017A00062B6FB60FEE7BB699A6BBB69DB6B9A4272
:1017B0000BD34FF0800372B683F31188BFF36F8FA2
:1017C000BFF34F8F62B63B61FEE7BB699A6BBB69A3
:1017D000DB6B9A4225D2BB6993F84530FB753B1D04
:1017E0003A681946B869114B9847F86197F917306C
:1017F000B3F1FF3F0ED1BB695B6A002B11D0BB690F
:10180000243318460A4B98470346002B09D001237E
:10181000FB6106E0FB7D0133DBB25AB2BB6983F8A2
:101820004520FB6918462037BD4680BDF5134000B2
:101830007121400090B58DB004AFF860B9603B6095
:101840001346FB80FB889B0018461B4B984778612A
:101850007B69002B0ED05820174B9847F861FB6925
:10186000002B03D0FB697A691A6305E07869134B92
:10187000984701E00023FB61FB69002B13D0FA8835
:1018800000230393FB6902937B6B01933B6B0093F3
:101890003B68B968F8680A4CA047F869094B984753
:1018A0000123BB6102E04FF0FF33BB61BB69184607
:1018B0002437BD4690BD00BF11074000BD08400061
:1018C000C9184000E519400080B588B000AFF86045
:1018D000B9607A603B603B6B186B7B689B001A4673
:1018E000A5213D4B98473B6B1A6B79686FF04043DD
:1018F0000B449B001344BB61BB6923F00703BB612E
:10190000BB6903F00703002B0BD04FF0800372B6C6
:1019100083F31188BFF36F8FBFF34F8F62B67B6184
:10192000FEE70023FB6112E0BA68FB6913441978F3
:101930003A6BFB69134434330A461A70BA68FB6980
:1019400013441B78002B06D0FB690133FB61FB6954
:10195000092BE9D900E000BF3B6B002283F83D2052
:10196000BB6A042B01D90423BB623B6BBA6ADA62FF
:101970003B6BBA6A9A643B6B0022DA643B6B0433BC
:101980001846164B98473B6B18331846134B98472D
:101990003B6B3A6B1A61BB6AC3F105023B6B9A6100
:1019A0003B6B3A6B5A623B6B00221A653B6B002221
:1019B00083F854203A68F968B869094B9847024699
:1019C0003B6B1A60FB6A002B02D0FB6A3A6B1A6011
:1019D00000BF2037BD4680BD414E4000DD014000C4
:1019E0000903400080B582B000AF78602D4B984766
:1019F0002D4B1B6801332C4A13602C4B1B68002BAA
:101A000009D12A4A7B681360274B1B68012B10D130
:101A1000274B98470DE0274B1B68002B09D1234B20
:101A20001B68DA6A7B68DB6A9A4202D81F4A7B68C5
:101A30001360214B1B6801331F4A13601E4B1A6849
:101A40007B681A647B68DB6A01229A401B4B1B6827
:101A500013431A4A13607B68DA6A13469B001344E7
:101A60009B00174A1A447B68043319461046154BED
:101A70009847154B98470F4B1B68002B0ED00B4B0C
:101A80001B68DA6A7B68DB6A9A4207D20F4B4FF019
:101A900080521A60BFF34F8FBFF36F8F00BF0837BC
:101AA000BD4680BDE9044000D4C14020FCC04020B8
:101AB000A9234000E0C14020F0C14020DCC140200B
:101AC00000C14020F90140004D05400004ED00E058
:101AD00080B58AB000AF7860396000237B627B6894
:101AE000002B0BD14FF0800372B683F31188BFF344
:101AF0006F8FBFF34F8F62B6FB60FEE73B68002B32
:101B00000BD14FF0800372B683F31188BFF36F8F50
:101B1000BFF34F8F62B63B61FEE72A4B1B68002B79
:101B20000BD04FF0800372B683F31188BFF36F8F31
:101B3000BFF34F8F62B67B61FEE7234B9847234B81
:101B40001B683B627B681A683B681344FB617B68D7
:101B50001A683B6A9A420BD97B681A68FB699A42F9
:101B600011D9FA693B6A9A420DD901237B620AE0D6
:101B70007B681A68FB699A4203D8FA693B6A9A4201
:101B800001D901237B627B68FA691A607B6A002BAA
:101B900006D0FA693B6AD31A002118460C4B9847C5
:101BA0000C4B9847B861BB69002B07D10A4B4FF02B
:101BB00080521A60BFF34F8FBFF36F8F00BF28377B
:101BC000BD4680BDFCC14020891C4000D8C14020DA
:101BD0009D274000A51C400004ED00E090B587B0B3
:101BE00002AF204B019300230093002382221E4961
:101BF0001E481F4CA047F860FB68012B02D11D4B0B
:101C00009847F860FB68012B17D14FF0800372B63C
:101C100083F31188BFF36F8FBFF34F8F62B67B6082
:101C2000154B4FF0FF321A60144B01221A60144B0F
:101C300000221A60134B98470FE0FB68B3F1FF3F97
:101C40000BD14FF0800372B683F31188BFF36F8F0F
:101C5000BFF34F8F62B6BB60FEE700BF1437BD46CF
:101C600090BD00BFF8C14020A8AB400075234000E4
:101C70003518400075284000F4C14020E0C14020E4
:101C8000D8C140200904400080B400AF044B1B6859
:101C90000133034A136000BFBD465DF8047B704703
:101CA000FCC1402080B584B000AF0023FB6000235E
:101CB000BB60424B1B68002B0BD14FF0800372B608
:101CC00083F31188BFF36F8FBFF34F8F62B63B6012
:101CD000FEE73B4B9847394B1B68013B374A136083
:101CE000364B1B68002B61D1364B1B68002B5DD037
:101CF0002EE0354BDB68DB68FB60FB681833184669
:101D0000324B9847FB6804331846304B9847FB68C2
:101D1000DB6A01229A402E4B1B6813432C4A136046
:101D2000FB68DA6A13469B0013449B00294A1A4455
:101D3000FB68043319461046274B9847FB68DA6A5C
:101D4000264B1B68DB6A9A4202D3254B01221A609C
:101D50001D4B1B68002BCCD1FB68002B01D0214B05
:101D60009847214B1B687B607B68002B10D01F4B72
:101D700098470346002B02D0194B01221A607B685A
:101D8000013B7B607B68002BF1D1174B00221A606E
:101D9000134B1B68002B09D00123BB60144B4FF081
:101DA00080521A60BFF34F8FBFF36F8F114B98476C
:101DB000BB6818461037BD4680BD00BFFCC140203F
:101DC000E9044000D4C1402094C14020B502400045
:101DD000DCC1402000C14020F9014000FCC040208F
:101DE000E8C14020E1244000E4C14020191E400029
:101DF00004ED00E04D05400080B483B000AF054B1A
:101E00001B687B607B6818460C37BD465DF8047B19
:101E1000704700BFD8C1402080B586B000AF002316
:101E20007B61554B1B68002B40F09480534B1B6823
:101E300001333B61514A3B6913603B69002B21D15F
:101E40004F4B1B681B68002B0BD04FF0800372B602
:101E500083F31188BFF36F8FBFF34F8F62B63B6080
:101E6000FEE7474B1B68FB60464B1B68444A136008
:101E7000444AFB681360444B1B680133424A1360B9
:101E8000424B9847424B1B683A699A424DD33C4BB0
:101E90001B681B68002B01D1012300E00023002BED
:101EA00004D03B4B4FF0FF321A603EE0344B1B68CE
:101EB000DB68DB68BB60BB685B687B603A697B683A
:101EC0009A4203D2324A7B6813602EE0BB68043327
:101ED0001846304B9847BB689B6A002B04D0BB6800
:101EE000183318462B4B9847BB68DB6A01229A408F
:101EF000294B1B681343284A1360BB68DA6A1346F0
:101F00009B0013449B00254A1A44BB6804331946BE
:101F10001046234B9847BB68DA6A224B1B68DB6A82
:101F20009A42B4D301237B61B1E71E4B1B68DA6A86
:101F30001A4913469B0013449B000B441B68012B5A
:101F400001D901237B61184B1B68002B09D1174B6A
:101F5000984706E0144B1B680133134A1360134B78
:101F60009847134B1B68002B01D001237B617B69D1
:101F700018461837BD4680BDFCC14020D8C140205E
:101F80008CC1402090C14020ECC14020E1244000A1
:101F9000F4C14020B5024000DCC1402000C1402017
:101FA000F9014000FCC04020E4C14020A5434000AE
:101FB000E8C1402080B588B000AF3A4B1B68002BC9
:101FC00003D0394B01221A6067E0374B00221A60B8
:101FD000364B1B681B6BFB614FF0A533BB61FB6984
:101FE0001A68BB699A4211D1FB6904331A68BB694C
:101FF0009A420BD1FB6908331A68BB699A4205D132
:10200000FB690C331A68BB699A4208D0274B1A68DF
:10201000264B1B68343319461046254B9847254BF1
:102020001B68BB60BB68B3FA83F3FB71FB79C3F138
:102030001F033B6120493A6913469B0013449B00F0
:102040000B441B68002B0BD14FF0800372B683F357
:102050001188BFF36F8FBFF34F8F62B67B61FEE7CE
:102060003A6913469B0013449B00134A1344FB60D8
:10207000FB685B685A68FB685A60FB685A68FB68D3
:1020800008339A4204D1FB685B685A68FB685A605F
:10209000FB685B68DB68054A136000BF2037BD46FC
:1020A00080BD00BFFCC14020E8C14020FCC04020F2
:1020B00081434000DCC1402000C1402080B584B095
:1020C00000AF786039607B68002B0BD14FF0800344
:1020D00072B683F31188BFF36F8FBFF34F8F62B671
:1020E000FB60FEE7074B1B68183319467868064B00
:1020F000984701213868054B984700BF1037BD4607
:1021000080BD00BFFCC04020410240009D27400030
:1021100080B586B000AFF860B9607A60FB68002BCC
:102120000BD14FF0800372B683F31188BFF36F8F2A
:10213000BFF34F8F62B67B61FEE70A4B1B68183313
:102140001946F868084B98477B68002B02D04FF07F
:10215000FF33BB607968B868044B984700BF1837F5
:10216000BD4680BDFCC04020F90140009D274000D5
:1021700080B586B000AF78607B68DB68DB683B6168
:102180003B69002B0BD14FF0800372B683F31188AB
:10219000BFF36F8FBFF34F8F62B6FB60FEE73B6903
:1021A000183318461E4B98471E4B1B68002B1CD13A
:1021B0003B69043318461A4B98473B69DB6A012296
:1021C0009A40194B1B681343174A13603B69DA6A3C
:1021D00013469B0013449B00144A1A443B69043382
:1021E00019461046124B984705E03B6918331946CB
:1021F00010480F4B98473B69DA6A0F4B1B68DB6A44
:102200009A4205D901237B610C4B01221A6001E03F
:1022100000237B617B6918461837BD4680BD00BF2F
:10222000B5024000FCC14020DCC1402000C140207C
:10223000F901400094C14020FCC04020E8C140208A
:1022400080B485B000AF78607B68002B0BD14FF075
:10225000800372B683F31188BFF36F8FBFF34F8F84
:1022600062B6FB60FEE7074B1A687B681A60064B94
:102270001A687B685A6000BF1437BD465DF8047B5E
:10228000704700BFECC14020D8C1402080B586B067
:1022900000AF786039607B68002B0BD14FF0800372
:1022A00072B683F31188BFF36F8FBFF34F8F62B69F
:1022B000BB60FEE73B68002B0BD14FF0800372B68A
:1022C00083F31188BFF36F8FBFF34F8F62B6FB604C
:1022D000FEE71D4B98471D4B1B683B613B681B6825
:1022E000B3F1FF3F02D100237B6126E07B681A68CF
:1022F000174B1B689A4207D07B685A683B699A4221
:1023000002D801237B6118E07B685B683A69D21AC6
:102310003B681B689A420ED23B681A687B68596812
:102320003B69CB1A1A443B681A607868094B984796
:1023300000237B6101E001237B61074B98477B69A8
:1023400018461837BD4680BDE9044000D8C140207A
:10235000ECC14020412240004D05400080B400AF58
:10236000034B01221A6000BFBD465DF8047B704735
:10237000E8C1402080B582B000AF7860074B984735
:10238000074B1B68012BF9D9064B4FF080521A609E
:10239000BFF34F8FBFF36F8FF0E700BF2D244000D6
:1023A00000C1402004ED00E080B582B000AF002302
:1023B0007B600CE07A6813469B0013449B00124A32
:1023C00013441846114B98477B6801337B607B6848
:1023D000042BEFD90E480D4B98470E480B4B9847EE
:1023E0000D480A4B98470D48084B98470C48074B37
:1023F00098470C4B064A1A600B4B064A1A6000BFFE
:102400000837BD4680BD00BF00C140209D0140008F
:1024100064C1402078C1402094C14020A8C1402020
:10242000C0C140208CC1402090C1402080B582B006
:1024300000AF28E0184B9847184B1B68002B0CBFC7
:1024400001230023DBB27B60154B98477B68002B90
:1024500019D1144B9847114BDB68DB683B603B6834
:1024600004331846104B9847104B1B68013B0F4A2A
:1024700013600F4B1B68013B0D4A13600D4B9847CF
:1024800038680D4B98470A4B1B68002BD2D100BF10
:102490000837BD4680BD00BF891C4000A8C1402050
:1024A000A51C4000E9044000B5024000D4C1402012
:1024B000BCC140204D054000BD24400080B582B025
:1024C00000AF78607B681B6B1846044B98477868B0
:1024D000024B984700BF0837BD4680BDBD0840008D
:1024E00080B483B000AF0F4B1B681B68002B01D179
:1024F000012300E00023002B04D00B4B4FF0FF32F0
:102500001A6008E0074B1B68DB68DB687B607B6850
:102510005B68054A136000BF0C37BD465DF8047B5D
:10252000704700BF8CC14020F4C1402080B483B00C
:1025300000AF0B4B1B68002B02D101237B6008E02E
:10254000084B1B68002B02D102237B6001E00023B3
:102550007B607B6818460C37BD465DF8047B70478E
:10256000E0C14020FCC1402080B584B000AF78605D
:102570007B68FB607B68002B62D0FB68DA6A324BB9
:102580001B68DB6A9A425BD2FB689B69002B06DB07
:102590002D4B1B68DB6AC3F10502FB689A61FB687F
:1025A0005969FB68DA6A13469B0013449B00274A6B
:1025B0001344994201D1012300E00023002B3AD0BB
:1025C000FB6804331846224B98470346002B15D16D
:1025D000FB68DA6A1D4913469B0013449B000B44B9
:1025E0001B68002B0AD1FB68DB6A012202FA03F3A5
:1025F000DA43184B1B681340164A1360124B1B68D2
:10260000DA6AFB68DA62FB68DB6A01229A40114BE6
:102610001B6813430F4A1360FB68DA6A13469B007A
:1026200013449B00094A1A44FB68043319461046B8
:10263000094B984704E0044B1B68DA6AFB68DA62CE
:1026400000BF1037BD4680BDFCC0402000C1402007
:10265000B5024000DCC14020F901400080B586B0E1
:1026600000AF78607B683B6100237B617B68002B57
:1026700070D03B4B1B683A699A420BD04FF08003F5
:1026800072B683F31188BFF36F8FBFF34F8F62B6BB
:10269000BB60FEE73B69DB6C002B0BD14FF0800386
:1026A00072B683F31188BFF36F8FBFF34F8F62B69B
:1026B000FB60FEE73B69DB6C5A1E3B69DA643B69F1
:1026C000DA6A3B699B6C9A4244D03B69DB6C002B15
:1026D00040D13B6904331846224B98470346002BF0
:1026E00015D13B69DA6A204913469B0013449B00CD
:1026F0000B441B68002B0AD13B69DB6A012202FAFA
:1027000003F3DA43194B1B681340184A13603B6903
:102710009A6C3B69DA623B69DB6AC3F105023B698B
:102720009A613B69DB6A01229A40104B1B68134394
:102730000E4A13603B69DA6A13469B0013449B0000
:10274000094A1A443B69043319461046084B984716
:1027500001237B617B6918461837BD4680BD00BFE9
:10276000FCC04020B502400000C14020DCC1402038
:10277000F901400080B400AF074B1B68002B04D068
:10278000054B1B68DA6C0132DA64034B1B68184690
:10279000BD465DF8047B7047FCC0402080B584B026
:1027A00000AF78603960294B1B68FB60284B1B68C1
:1027B00004331846274B98470346002B0BD1244B74
:1027C0001B68DB6A012202FA03F3DA43224B1B681F
:1027D0001340214A13607B68B3F1FF3F0AD13B6885
:1027E000002B07D01A4B1B68043319461B481C4B9F
:1027F000984726E0FA687B681344BB60144B1B685B
:10280000BA685A60BA68FB689A4209D2154B1A68CE
:102810000F4B1B68043319461046134B984710E0C2
:10282000124B1A680A4B1B680433194610460E4BAC
:1028300098470F4B1B68BA689A4202D20C4ABB6891
:10284000136000BF1037BD4680BD00BFD8C1402017
:10285000FCC04020B5024000DCC14020C0C1402087
:10286000F901400090C14020410240008CC140204D
:10287000F4C1402090B585B002AF00237B60134BBC
:102880009847134B1B68002B0BD0124B019304236A
:10289000009300234FF482720F491048104CA04758
:1028A00078607B68002B0BD14FF0800372B683F306
:1028B0001188BFF36F8FBFF34F8F62B63B60FEE7A7
:1028C0007B6818460C37BD4690BD00BF5D2E4000AA
:1028D00038C240203CC24020C0AB40001D2A40000E
:1028E0003518400090B58BB000AFF860B9607A60E1
:1028F0003B6000237B62FB68002B0BD14FF0800311
:1029000072B683F31188BFF36F8FBFF34F8F62B638
:102910003B62FEE7194B1B68002B2AD0BB683B616A
:102920007B687B61FB68BB61BB68052B18DC144BC3
:1029300098470346022B09D1104B186807F1100184
:102940000023BA6B0F4CA047786212E00B4B18685B
:1029500007F11001002300220A4CA047786208E02A
:10296000064B186807F1100100233A68064CA0478F
:1029700078627B6A18462C37BD4690BD38C240202D
:102980002D254000AD0C40000D0F400090B589B0E2
:1029900002AF786039601D4B1B68DB68DB687B61C8
:1029A0007B69043318461A4B98477B69DB69012B16
:1029B00023D17B699A697B68D1187B683A6878690A
:1029C000144CA0470346002B17D00023009300238C
:1029D0007A6800217869104CA04738613B69002B68
:1029E0000BD14FF0800372B683F31188BFF36F8F62
:1029F000BFF34F8F62B6FB60FEE77B695B6A786965
:102A0000984700BF1C37BD4690BD00BF30C2402074
:102A1000B50240008D2B4000E528400080B584B011
:102A200000AF786007F108031846054B9847F86037
:102A3000BB681946F868034B9847034B9847F1E782
:102A4000FD2A40004D2A4000152C400080B584B07E
:102A500000AF78603960214B984707F108031846AA
:102A60001F4B9847F860BB68002B30D13B68002BA8
:102A70000AD17A68FB689A4206D81A4B9847F968D7
:102A80007868194B984724E03B68002B08D0174B17
:102A90001B681B68002B0CBF01230023DBB23B60CB
:102AA000134B18687A68FB68D31A3A681946114BB9
:102AB00098470C4B98470346002B0AD10E4B4FF01A
:102AC00080521A60BFF34F8FBFF36F8F01E0054B49
:102AD000984700BF1037BD4680BD00BF891C40002D
:102AE000452B4000A51C40008D29400034C24020E9
:102AF00038C24020FD16400004ED00E080B485B0EF
:102B000000AF78600E4B1B681B68002B0CBF0123C5
:102B10000023DBB21A467B681A607B681B68002BB7
:102B200005D1074B1B68DB681B68FB6001E00023D5
:102B3000FB60FB6818461437BD465DF8047B7047A0
:102B400030C2402080B584B000AF78600C4B98470D
:102B5000F8600C4B1B68FA689A4205D20A4B9847FA
:102B60007B6801221A6002E07B6800221A60054A35
:102B7000FB681360FB6818461037BD4680BD00BF78
:102B8000F91D400040C240208D2D400080B586B028
:102B900000AFF860B9607A603B6000237B61FB683E
:102BA000BA685A60FB68FA681A61BA687B689A4228
:102BB00012D87A683B68D21AFB689B699A4202D3A2
:102BC00001237B611BE0104B1A68FB680433194634
:102BD00010460E4B984712E07A683B689A4206D23C
:102BE000BA683B689A4202D301237B6107E0084B35
:102BF0001A68FB68043319461046044B98477B69F2
:102C000018461837BD4680BD34C2402041024000FE
:102C100030C2402090B58FB002AF9AE07B68002BA5
:102C200019DA3B1D0433FB62FB6A002B0BD14FF01A
:102C3000800372B683F31188BFF36F8FBFF34F8F9A
:102C400062B67B61FEE7FB6A1B68FA6A5068FA6A43
:102C50009268114698477B68002B7ADBFB687B62A1
:102C60007B6A5B69002B04D07B6A04331846404BB7
:102C700098473B4618463F4B984738627B68092B7C
:102C800066D801A252F823F0B12C4000B12C4000CC
:102C9000B12C4000532D40000F2D4000492D400025
:102CA000B12C4000B12C4000532D40000F2D4000AE
:102CB000BA687B6A9B69D118BB683A6A786A2E4CFD
:102CC000A0470346002B44D07B6A5B6A786A98472A
:102CD0007B6ADB69012B3CD1BA687B6A9B691A4429
:102CE0000023009300230021786A244CA047F86158
:102CF000FB69002B2DD14FF0800372B683F311884E
:102D0000BFF36F8FBFF34F8F62B6BB62FEE7BA6847
:102D10007B6A9A617B6A9B69002B0BD14FF0800321
:102D200072B683F31188BFF36F8FBFF34F8F62B614
:102D3000BB61FEE77B6A9A693B6AD1183B6A3A6AD3
:102D4000786A0D4CA04704E0786A0D4B984700E084
:102D500000BF0C4B1868391D002300220A4CA04705
:102D60000346002B7FF45AAF00BF3437BD4690BDF9
:102D7000B5024000452B40008D2B4000E528400067
:102D8000BD08400038C240207910400090B589B09D
:102D900002AF46E02C4B1B68DB681B687B612A4B4B
:102DA0001B68DB68DB683B613B6904331846274BD3
:102DB00098473B695B6A386998473B69DB69012B37
:102DC0002FD13B699A697B691344FB60FA687B6980
:102DD0009A420ED93B69FA685A603B693A691A61AE
:102DE000194B1A683B69043319461046184B98472B
:102DF00017E00023009300237A6900213869154CFD
:102E0000A047B860BB68002B0BD14FF0800372B6AF
:102E100083F31188BFF36F8FBFF34F8F62B63B60B0
:102E2000FEE7094B1B681B68002BB3D1064B1B68E0
:102E30007B60094B1B68044A1360074A7B68136078
:102E400000BF1C37BD4690BD30C24020B5024000D7
:102E500041024000E528400034C2402080B500AF68
:102E6000134B9847134B1B68002B1DD11248134B73
:102E700098471348114B9847124B0F4A1A60124B50
:102E80000F4A1A60002210210520104B9847024675
:102E9000084B1A60074B1B68002B05D0054B1B68BD
:102EA0000B4918460B4B98470B4B984700BF80BD0A
:102EB000E904400038C2402008C240209D01400083
:102EC0001CC2402030C2402034C24020DD0B4000F4
:102ED000C8AB4000AD1640004D05400080B582B043
:102EE00000AF786039607B68C72B10D80A4A7B68CE
:102EF00013441B78002B03D040F21110074B984766
:102F00003B68D9B2044A7B6813440A461A7000BF72
:102F10000837BD4680BD00BF3CC34020652F400040
:102F200080B582B000AF786039607B68C72B10D85D
:102F30000A4A7B6813441B78002B03D04FF491702E
:102F4000074B98473B68D9B2044A7B6813440A464A
:102F50001A7000BF0837BD4680BD00BF74C2402054
:102F6000652F400080B483B000AF7860054A7B686D
:102F70001360054B00221A6000BF0C37BD465DF898
:102F8000047B704764C240200400402090B58FB09D
:102F900000AF00237B60694B1B680133674A1360F5
:102FA000664B1B6803F00103002B00F09480644B18
:102FB0001B681846634B98470346012B28D0EFF354
:102FC00011824FF0800372B683F31188BFF36F8FC5
:102FD000BFF34F8F62B67A613B617B693B635A4BAB
:102FE0001B680133584A1360554B18683A1D00237B
:102FF0005549564CA0470346012B04D0524B1B6841
:10300000013B514A13603B6B7B637B6B83F31188FD
:103010004B4B1B6818464B4B98470346012B28D057
:10302000EFF311824FF0800372B683F31188BFF380
:103030006F8FBFF34F8F62B6FA62FB60FB6A7B62F1
:10304000414B1B680133404A13603D4B18683A1DE1
:1030500000233D493D4CA0470346012B04D03A4B89
:103060001B68013B384A13607B6ABB62BB6A83F30F
:103070001188334B1B681846324B98470346012B87
:1030800056D0EFF311824FF0800372B683F31188AC
:10309000BFF36F8FBFF34F8F62B63A62BB603B6A7C
:1030A000BB61294B1B680133274A1360244B186806
:1030B0003A1D00232449254CA0470346012B04D088
:1030C000214B1B68013B204A1360BB69FB61FB6914
:1030D00083F311882CE01E4B1B683A1D39461846B5
:1030E0001C4B98470346012B04D13B680521184629
:1030F000194B9847164B1B683A1D39461846154B15
:1031000098470346012B04D13B6805211846124B12
:1031100098470F4B1B683A1D394618460D4B984788
:103120000346012B04D13B68052118460A4B9847FA
:103130007B6818463C37BD4690BD00BF04C44020A4
:103140004CC24020611640006CC240200D0F400070
:1031500050C24020E1124000DD2E400090B597B0F3
:1031600000AF00233B609F4B1B6801339D4A1360F7
:103170009C4B1B6803F00103002B00F08B809A4BE3
:103180001B681846994B98470346012B28D0EFF34C
:1031900011824FF0800372B683F31188BFF36F8FF3
:1031A000BFF34F8F62B6FA61BB61FB693B65904B21
:1031B0001B6801338E4A13608B4B18683A46002314
:1031C0008B498C4CA0470346012B04D0884B1B68CD
:1031D000013B874A13603B6D7B657B6D83F31188F0
:1031E000814B1B681846814B98470346012B28D01A
:1031F000EFF311824FF0800372B683F31188BFF3AF
:103200006F8FBFF34F8F62B6FA647B61FB6C7B6498
:10321000774B1B680133764A1360734B18683A4644
:1032200000237349734CA0470346012B04D0704B15
:103230001B68013B6E4A13607B6CBB64BB6C83F301
:103240001188694B1B683A46391D18466A4B9847E6
:103250000346012B04D04FF43270684B984704E0CA
:103260007B6805211846664B98475F4B1B683A46BA
:10327000391D1846604B98470346012B04D040F295
:10328000C9205E4B9847A7E07B68052118465C4B38
:103290009847A1E05B4B1B683A46391D1846564BD0
:1032A00098470346012B04D17B6805211846564BED
:1032B0009847544B1B6818464C4B98470346012BC4
:1032C00028D0EFF311824FF0800372B683F3118898
:1032D000BFF36F8FBFF34F8F62B63A643B613B6CB5
:1032E000BB634A4B1B680133484A1360454B18685F
:1032F0003A46002345493F4CA0470346012B04D0E2
:10330000424B1B68013B414A1360BB6BFB63FB6B89
:1033100083F311883B4B1B681846344B9847034690
:10332000012B28D0EFF311824FF0800372B683F3A4
:103330001188BFF36F8FBFF34F8F62B67A63FB6064
:103340007B6BFB62314B1B680133304A13602D4BA2
:1033500018683A4600232D49264CA0470346012B06
:1033600004D02A4B1B68013B284A1360FB6A3B636D
:103370003B6B83F31188234B1B6818461B4B984704
:103380000346012B28D0EFF311824FF0800372B671
:1033900083F31188BFF36F8FBFF34F8F62B6BA62AA
:1033A000BB60BB6A3B62194B1B680133174A136051
:1033B000144B18683A46002314490E4CA0470346A4
:1033C000012B04D0114B1B68013B104A13603B6A70
:1033D0007B627B6A83F311883B6818465C37BD4685
:1033E00090BD00BF08C440204CC240206116400080
:1033F0006CC240200D0F4000E1124000652F4000DC
:10340000212F400050C24020DD2E400070C24020DD
:1034100090B583B002AF0022042101200F4B9847E2
:1034200002460F4B1A600E4B1B68002B15D0002371
:10343000019302230093002382220A490A480B4C7D
:10344000A04700230193012300930023822208490F
:103450000848064CA047084B9847FEE7DD0B4000A4
:1034600024C44020D0AB4000C13440003518400097
:10347000D4AB40007D344000DD1B400090B585B0EA
:1034800000AF78606423BB60094B98470346FB603C
:1034900007F10C03C8211846064B9847064B1868DD
:1034A00007F1080100230022044CA047F0E700BF09
:1034B000F91D4000D11A400024C44020AD0C40004A
:1034C00090B585B000AF78606423FB60094B186845
:1034D00007F1080100234FF0FF32074CA047BA68FC
:1034E000FB689A42F2D10020044B98470023BB604E
:1034F000ECE700BF24C4402079104000D93A4000D6
:1035000080B483B000AF0346FB71094997F90730D7
:103510005B09FA7902F01F02012000FA02F260331F
:1035200041F8232000BF0C37BD465DF8047B70478F
:1035300000E100E080B500AF134B1B6A03F01003FD
:10354000002B0CD0114B98470346002B07D0104B93
:103550004FF080521A60BFF34F8FBFF36F8F0A4B4B
:103560001B6E03F01003002B0CD00A4B9847034648
:10357000002B07D0064B4FF080521A60BFF34F8FDD
:10358000BFF36F8F00BF80BD00C000408D2F400093
:1035900004ED00E05D31400080B582B000AF084B23
:1035A0001B6A7B601820074B9847074B1B68013349
:1035B000054A13607B6800BF0837BD4680BD00BF69
:1035C000000001400135400030C4402080B400AF0D
:1035D000BFF34F8FBFF36F8F0C4A0C4BD3F8903271
:1035E00023F00103C2F89032084A084BD3F8943212
:1035F00023F00103C2F89432BFF34F8FBFF36F8FF4
:1036000000BFBD465DF8047B704700BF00ED00E0E1
:1036100080B582B000AF1B4B7B601B4B3B607A6870
:103620003B689A420CD007E03B681A1D3A607A6802
:10363000111D796012681A603B68144A9342F3D3F3
:10364000134B3B6004E03B681A1D3A6000221A608D
:103650003B68104A9342F6D30F4B7B600F4A7B685E
:1036600023F07F0393600E4B0E4A5A600C4B0E4AB8
:103670005A600E4B98470E4B98470E4B98470E4B8F
:103680009847FEE7A0AF400000004020AC08402073
:10369000AC084020C0C440200000400000ED00E025
:1036A000000C0E400C08005A0C07005ACD354000A3
:1036B0006D394000BD4C40000543400080B400AF70
:1036C000FEE700BF80B483B000AF384B4FF4A06278
:1036D0001A60374B1B6A7B607A68364B13437B60FA
:1036E000334A7B681362344B5B6903F08003002B21
:1036F00009D1314B314A1A6000BF2F4B5B6903F08F
:103700008003002BF9D02A4B1B6A03F08073002B37
:1037100009D1274B2A4A1A6200BF254B9B6E03F042
:103720000103002BF9D0224B264A1A6200BF204B1E
:103730009B6E03F48033002BF9D01D4A1C4B1B6B8E
:1037400023F0030343F00103136300BF184B9B6E88
:1037500003F00803002BF9D0154B1B4A9A6200BFF7
:10376000134B9B6E03F00203002BF9D0104B40F279
:1037700001121A6300BF0E4B9B6E03F00803002B6F
:10378000F9D00B4B4FF481721A6300BF084B9B6E4C
:1037900003F00803002BF9D00C4B0D4A1A6000BF50
:1037A0000C37BD465DF8047B704700BF000C0E402F
:1037B00000060E400000370410180E40080000A557
:1037C0000908370009083701013F18200800402088
:1037D00000A3E11180B582B000AFBFF35F8F11236A
:1037E0007B604A484A4B984702464A4B13433B602A
:1037F00039687868484B9847484B7B604848444B49
:1038000098470246474B13433B6039687868424B00
:103810009847454B7B603D483D4B984702463D4BA2
:1038200013433B60396878683B4B98473F4B7B605C
:103830003F48374B984702463E4B13433B6039683D
:103840007868354B98473C4B7B603C48304B9847F9
:103850000246384B13433B60396878682E4B9847D3
:10386000374B7B606FF06040294B98470246354BE1
:1038700013433B6039687868274B9847324B7B602D
:103880006FF07040224B98470246304B13433B6029
:1038900039687868204B98472D4B7B606FF07040FB
:1038A0001B4B984702462B4B13433B6039687868A3
:1038B000194B9847284B7B606FF06040144B98473A
:1038C0000246224B13433B6039687868124B984795
:1038D000224B7B6022480E4B98470246194B1343FC
:1038E0003B60396878680C4B98471E4A1D4B5B6AF1
:1038F00043F4E023536205201B4B9847BFF34F8FDF
:10390000BFF36F8F00BF0837BD4680BDFFFF3F008C
:10391000E53C400001000001BD3C400012004000B9
:10392000FFFF1F00010023061300002014004020A9
:10393000FFFF03000100230315004420FFFF0100E7
:103940001600004001000113170000600100000391
:103950001800007001002503190000801A0010A053
:10396000FFFF0F0000ED00E09D3C400080B500AF80
:10397000024B9847024B984700BF80BDC5364000B8
:10398000D5374000B0B58AB000AF78603960234BBE
:1039900007F10C041D460FCD0FC495E8030084E821
:1039A00003001F4B7B621F4B1F4AC3F8E4211D4AD3
:1039B0001C4BD3F8143143F01003C2F8143107F153
:1039C0000C0302211846194B98477B6A4FF4867204
:1039D0001A607B6A4FF0FF32DA600E20144B984772
:1039E0003A687B68B2FBF3F31A097B6A1A627B6A56
:1039F0004FF40C625A607B6A50221A600D4B012210
:103A00001A700D4B1B6898680023022200210B4C92
:103A1000A04700BF2837BD46B0BD00BFD8AB4000AF
:103A200000800240008008400054414DA93F400002
:103A30007941400039C4402038044020054F4000FF
:103A400080B584B000AF0346FB71104BFB60104B98
:103A50001B78002B04D10F494FF4E1300E4B9847EF
:103A600000BFFB685B6903F40073002BF9D0FA799F
:103A7000FB68DA6100BFFB685B6903F40073002B2D
:103A8000F9D000BF1037BD4680BD00BF00800240A6
:103A900039C4402080D1F0088539400080B582B01B
:103AA00000AF786002227B68934201D300230BE0D1
:103AB0007A6813465B0013449B00054A13440121B6
:103AC0001846044B9847034618460837BD4680BD44
:103AD000D0AC4000A93F400080B582B000AF786014
:103AE00002227B68934201D3002322E07A681346C6
:103AF0005B0013449B00114A13441846104B98472F
:103B00000346002B0AD07A6813465B0013449B00DF
:103B10000A4A134418460B4B984709E07A68134643
:103B20005B0013449B00054A13441846064B984714
:103B3000012318460837BD4680BD00BFD0AC400009
:103B40004D4140002D4140000D41400080B485B002
:103B500000AF78600B4B1B68002B02D1094B0A4A5F
:103B60001A60084B1B68FB60064B1A687B6813449D
:103B7000044A1360FB6818461437BD465DF8047BA1
:103B8000704700BF44C44020C0E4402080B483B0EC
:103B900000AF78604FF0FF3318460C37BD465DF834
:103BA000047B704780B483B000AF786039603B68B5
:103BB0004FF400525A60002318460C37BD465DF89A
:103BC000047B704780B483B000AF7860012318464F
:103BD0000C37BD465DF8047B704700BF80B485B0EC
:103BE00000AFF860B9607A60002318461437BD460C
:103BF0005DF8047B704700BF80B485B000AFF8600B
:103C0000B9607A60002318461437BD465DF8047B1E
:103C1000704700BF80B586B000AFF860B9607A60C9
:103C200000237B610AE0BB681B781846084B984765
:103C30007B6901337B61BB680133BB607A697B6858
:103C40009A42F0DB7B6918461837BD4680BD00BF3D
:103C5000413A400080B582B000AF78607968024890
:103C6000024B9847FEE700BFECAC4000DD4E400041
:103C700080B483B000AF7860396000BF0C37BD46B8
:103C80005DF8047B704700BF80B400AF4FF0FF3396
:103C90001846BD465DF8047B704700BF80B483B012
:103CA00000AF7860044A7B68536000BF0C37BD46A4
:103CB0005DF8047B704700BF90ED00E080B483B0F6
:103CC00000AF78603960064A7B68D360044A3B687D
:103CD000136100BF0C37BD465DF8047B704700BF21
:103CE00090ED00E080B485B000AF78602023FB60E9
:103CF0000423BB6009E07A68FB689A4209D9BB6873
:103D00000133BB60FB685B00FB60BB681E2BF2D914
:103D100000E000BFBB685B0018461437BD465DF885
:103D2000047B704780B487B000AFF860B960134679
:103D3000FB71FB68BA685A64FB79002B03D0FB68FF
:103D4000BA685A6602E0FB68BA681A66FB681B6FBD
:103D50007B61FB681A6FBB68D9437B690B401A40D3
:103D6000FB681A67FB685B6F7B61FB685A6FBB6817
:103D7000D9437B690B401A40FB685A67FB68BA68F5
:103D80005A6000BF1C37BD465DF8047B704700BF1A
:103D900080B487B000AFF860B9601346FB71FB6870
:103DA000BA685A64FB79002B03D0FB68BA685A667C
:103DB00002E0FB68BA681A66FB681B6F7B61BA6831
:103DC0007B691A43FB681A67FB685B6F7B61FB6862
:103DD0005A6FBB68D9437B690B401A40FB685A672E
:103DE000FB68BA685A6000BF1C37BD465DF8047BAB
:103DF000704700BF80B487B000AFF860B960134669
:103E0000FB71FB68BA685A64FB79002B03D0FB682E
:103E1000BA685A6602E0FB68BA681A66FB681B6FEC
:103E20007B61FB681A6FBB68D9437B690B401A4002
:103E3000FB681A67FB685B6F7B61BA687B691A4332
:103E4000FB685A67FB68BA685A6000BF1C37BD46FA
:103E50005DF8047B704700BF80B487B000AFF860A6
:103E6000B9601346FB71FB68BA685A64FB79002B92
:103E700003D0FB68BA685A6602E0FB68BA681A6643
:103E8000FB681B6F7B61BA687B691A43FB681A6722
:103E9000FB685B6F7B61BA687B691A43FB685A6792
:103EA000FB68BA685A6000BF1C37BD465DF8047BEA
:103EB000704700BF80B485B000AFF860B9601346AA
:103EC000FB71FB68BA685A64FB7903F00103002BAD
:103ED00003D0FB68BA685A6602E0FB68BA681A66E3
:103EE000FB7903F00A03002B03D0FB68BA681A625F
:103EF00002E0FB68BA685A62FB7903F00203002B08
:103F000004D0FB68BA68C3F8802008E0FB7903F0AE
:103F10000803002B03D0FB68BA68C3F88420FB6851
:103F2000BA685A61FB68BA681A6000BF1437BD46A8
:103F30005DF8047B704700BF80B485B000AFF860C7
:103F4000B96011461A460B46FB711346BB71FB68FC
:103F5000BA685A643B7E002B03D0FB68BA685A6685
:103F600002E0FB68BA681A66BB79002B03D0FB68D5
:103F7000BA681A6502E0FB68BA685A65FB79002BDB
:103F800003D0FB68BA681A6302E0FB68BA685A6338
:103F9000FB68BA681A61FB68BA681A6000BF143718
:103FA000BD465DF8047B704790B585B002AF786080
:103FB000396094E07B685B7A062B00F2888001A26E
:103FC00052F823F0E13F400003404000254040000C
:103FD0004740400069404000874040008740400023
:103FE0007B6858687B6819687B689B7A03F00103DB
:103FF000002B14BF01230023DBB21A463C4B984729
:1040000067E07B6858687B6819687B689B7A03F077
:104010000103002B14BF01230023DBB21A46354BEA
:10402000984756E07B6858687B6819687B689B7A7C
:1040300003F00103002B14BF01230023DBB21A4657
:104040002D4B984745E07B6858687B6819687B680A
:104050009B7A03F00103002B14BF01230023DBB282
:104060001A46264B984734E07B681B7A1846244B47
:1040700098477B6858687B6819687B689B7A1A4602
:10408000204B984725E07B6858687B6819687B68F7
:104090005B7A062B0CBF01230023DBB21A467B6838
:1040A0009B7A03F00403002B14BF01230023DBB22F
:1040B0001C467B689B7A03F00103002B14BF01238D
:1040C0000023DBB2009323460F4CA04701E00023FE
:1040D0000AE07B680C337B603B68013B3B603B68DC
:1040E000002B7FF467AF012318460C37BD4690BD07
:1040F000253D4000913D4000F53D4000593E4000C7
:1041000079414000B53E4000393F400080B483B063
:1041100000AF78607B685B687A6812681A6300BFDA
:104120000C37BD465DF8047B704700BF80B483B098
:1041300000AF78607B685B687A6812685A6300BF7A
:104140000C37BD465DF8047B704700BF80B483B078
:1041500000AF78607B685B689A6B7B681B68134074
:10416000002B01D1002300E0012318460C37BD4687
:104170005DF8047B704700BF90B583B000AF7860F6
:104180007B683E2B05D91C4B1C4A9C211C481D4CAE
:10419000A0477B681F2B13D81B4B9A6901217B68B2
:1041A00001FA03F31A4001217B6801FA03F39A42F2
:1041B0001ED0154A01217B6801FA03F3136117E051
:1041C0007B68203B7B60104BD3F8082101217B6882
:1041D00001FA03F31A4001217B6801FA03F39A42C2
:1041E00006D0094A01217B6801FA03F3C2F80031C5
:1041F00000BF0C37BD4690BD08AD40004CAD40003F
:1042000014AD4000594C400000060E4080B483B00D
:1042100000AF78607B684FF400425A6000BF0C37F3
:10422000BD465DF8047B704780B400AFBFF34F8F8D
:10423000BFF36F8F094B0022C3F85022074A074B88
:104240005B6943F400335361BFF34F8FBFF36F8F4C
:1042500000BFBD465DF8047B704700BF00ED00E085
:1042600080B48BB000AF264BD3F88030FB61FB6984
:104270005B0BC3F30E037B62FB6903F0070304339C
:10428000BB61FB69DB08C3F309037B617B69FB60EE
:10429000FB68B3FA83F3FB71FB7903F01F033B6107
:1042A000BFF34F8F7B693B623A6A3B6902FA03F3C3
:1042B00019467A6ABB6902FA03F30B43BB60104AE2
:1042C000BB68C2F860323B6A5A1E3A62002BEBD1DF
:1042D0007B6A5A1E7A62002BE4D1BFF34F8F084AE3
:1042E000074B5B6943F480335361BFF34F8FBFF3D8
:1042F0006F8F00BF2C37BD465DF8047B704700BF51
:1043000000ED00E080B500AF034B9847034B9847A2
:104310000023184680BD00BF2143400011344000F7
:1043200080B500AF0848094B98470948074B9847A4
:10433000084B9847084B98470020084B98470120A6
:10434000064B984700BF80BD50180E400D424000FC
:1043500000190E4029424000614240009D3A400051
:1043600080B483B000AF4FF0800372B683F311883E
:10437000BFF36F8FBFF34F8F62B67B60FEE700BF66
:1043800080B485B000AF786039604FF0800372B6BA
:1043900083F31188BFF36F8FBFF34F8F62B6FB605B
:1043A000FEE700BF80B400AF00BFBD465DF8047BF0
:1043B000704700BF81F0004102E000BF83F000437E
:1043C00030B54FEA41044FEA430594EA050F08BFB0
:1043D00090EA020F1FBF54EA000C55EA020C7FEA74
:1043E000645C7FEA655C00F0E2804FEA5454D4EBF1
:1043F0005555B8BF6D420CDD2C4480EA020281EABB
:10440000030382EA000083EA010180EA020281EAF2
:104410000303362D88BF30BD11F0004F4FEA013144
:104420004FF4801C4CEA113102D0404261EB410153
:1044300013F0004F4FEA03334CEA133302D05242D9
:1044400063EB430394EA050F00F0A780A4F1010495
:10445000D5F1200E0DDB02FA0EFC22FA05F28018CF
:1044600041F1000103FA0EF2801843FA05F35941B5
:104470000EE0A5F120050EF1200E012A03FA0EFC34
:1044800028BF4CF0020C43FA05F3C01851EBE3715E
:1044900001F0004507D54FF0000EDCF1000C7EEB7B
:1044A00000006EEB0101B1F5801F1BD3B1F5001FB9
:1044B0000CD349085FEA30004FEA3C0C04F10104D8
:1044C0004FEA445212F5800F80F09A80BCF1004F01
:1044D00008BF5FEA500C50F1000041EB045141EA83
:1044E000050130BD5FEA4C0C404141EB010111F484
:1044F000801FA4F10104E9D191F0000F04BF01462F
:104500000020B1FA81F308BF2033A3F10B03B3F10C
:1045100020020CDA0C3208DD02F1140CC2F10C029C
:1045200001FA0CF021FA02F10CE002F11402D8BFFA
:10453000C2F1200C01FA02F120FA0CFCDCBF41EAC6
:104540000C019040E41AA2BF01EB0451294330BD95
:104550006FEA04041F3C1CDA0C340EDC04F1140472
:10456000C4F1200220FA04F001FA02F340EA030049
:1045700021FA04F345EA030130BDC4F10C04C4F18F
:10458000200220FA02F001FA04F340EA030029466F
:1045900030BD21FA04F0294630BD94F0000F83F4B9
:1045A000801306BF81F480110134013D4EE77FEA9C
:1045B000645C18BF7FEA655C29D094EA050F08BFE8
:1045C00090EA020F05D054EA000C04BF19461046C9
:1045D00030BD91EA030F1EBF0021002030BD5FEA0D
:1045E000545C05D14000494128BF41F0004130BD35
:1045F00014F580043CBF01F5801130BD01F0004589
:1046000045F0FE4141F470014FF0000030BD7FEAFB
:10461000645C1ABF194610467FEA655C1CBF0B46F6
:10462000024650EA013406BF52EA033591EA030F0D
:1046300041F4002130BD00BF90F0000F04BF002105
:10464000704730B54FF4806404F132044FF0000538
:104650004FF0000150E700BF90F0000F04BF0021B1
:10466000704730B54FF4806404F1320410F0004517
:1046700048BF40424FF000013EE700BF42004FEA12
:10468000E2014FEA31014FEA02701FBF12F07F438F
:1046900093F07F4F81F06051704792F0000F14BF8C
:1046A00093F07F4F704730B54FF4607401F00045D0
:1046B00021F0004120E700BF50EA010208BF704727
:1046C00030B54FF000050AE050EA010208BF70471C
:1046D00030B511F0004502D5404261EB41014FF485
:1046E000806404F132045FEA915C3FF4DCAE4FF089
:1046F00003025FEADC0C18BF03325FEADC0C18BF70
:10470000033202EBDC02C2F1200300FA03FC20FAC0
:1047100002F001FA03FE40EA0E0021FA02F114440D
:10472000C1E600BF70B54FF0FF0C4CF4E06C1CEA22
:1047300011541DBF1CEA135594EA0C0F95EA0C0F97
:1047400000F0DEF82C4481EA030621EA4C5123EA0A
:104750004C5350EA013518BF52EA033541F4801139
:1047600043F4801338D0A0FB02CE4FF00005E1FBEC
:1047700002E506F00042E0FB03E54FF00006E1FB36
:1047800003569CF0000F18BF4EF0010EA4F1FF0479
:10479000B6F5007F64F5407404D25FEA4E0E6D41B9
:1047A00046EB060642EAC62141EA55514FEAC520CA
:1047B00040EA5E504FEACE2EB4F1FD0C88BFBCF546
:1047C000E06F1ED8BEF1004F08BF5FEA500E50F1F7
:1047D000000041EB045170BD06F0004646EA0101BD
:1047E00040EA020081EA0301B4EB5C04C2BFD4EBEF
:1047F0000C0541EA045170BD41F480114FF0000EE8
:10480000013C00F3AB8014F1360FDEBF002001F055
:10481000004170BDC4F10004203C35DA0C341BDCCF
:1048200004F11404C4F1200500FA05F320FA04F0A1
:1048300001FA05F240EA020001F0004221F00041D5
:1048400010EBD37021FA04F642EB06015EEA430E48
:1048500008BF20EAD37070BDC4F10C04C4F1200578
:1048600000FA04F320FA05F001FA04F240EA02002B
:1048700001F0004110EBD37041F100015EEA430EFC
:1048800008BF20EAD37070BDC4F1200500FA05F21C
:104890004EEA020E20FA04F301FA05F243EA02039B
:1048A00021FA04F001F0004121FA04F220EA0200AA
:1048B00000EBD3705EEA430E08BF20EAD37070BDF0
:1048C00094F0000F0FD101F00046400041EB0101D0
:1048D00011F4801F08BF013CF7D041EA060195F0B2
:1048E000000F18BF704703F00046520043EB03036C
:1048F00013F4801F08BF013DF7D043EA0603704759
:1049000094EA0C0F0CEA135518BF95EA0C0F0CD063
:1049100050EA410618BF52EA4306D1D181EA0301A9
:1049200001F000414FF0000070BD50EA410606BFA3
:104930001046194652EA430619D094EA0C0F02D1E8
:1049400050EA013613D195EA0C0F05D152EA03362D
:104950001CBF104619460AD181EA030101F000414B
:1049600041F0FE4141F470014FF0000070BD41F094
:10497000FE4141F4780170BD70B54FF0FF0C4CF46E
:10498000E06C1CEA11541DBF1CEA135594EA0C0F8D
:1049900095EA0C0F00F0A7F8A4EB050481EA030EDA
:1049A00052EA03354FEA013100F088804FEA0333C1
:1049B0004FF0805545EA131343EA12634FEA02228F
:1049C00045EA111545EA10654FEA00260EF0004150
:1049D0009D4208BF964244F1FD0404F5407402D2A2
:1049E0005B084FEA3202B61A65EB03055B084FEA33
:1049F00032024FF480104FF4002CB6EB020E75EB30
:104A0000030E22BFB61A754640EA0C005B084FEA57
:104A10003202B6EB020E75EB030E22BFB61A7546D4
:104A200040EA5C005B084FEA3202B6EB020E75EB1F
:104A3000030E22BFB61A754640EA9C005B084FEA97
:104A40003202B6EB020E75EB030E22BFB61A7546A4
:104A500040EADC0055EA060E18D04FEA051545EA93
:104A600016754FEA06164FEAC30343EA52734FEA3C
:104A7000C2025FEA1C1CC0D111F4801F0BD141EAB5
:104A800000014FF000004FF0004CB6E711F4801F1A
:104A900004BF01430020B4F1FD0C88BFBCF5E06FFA
:104AA0003FF6AFAEB5EB030C04BFB6EB020C5FEA0A
:104AB000500C50F1000041EB045170BD0EF0004E5F
:104AC0004EEA113114EB5C04C2BFD4EB0C0541EA91
:104AD000045170BD41F480114FF0000E013C90E68E
:104AE00045EA060E8DE60CEA135594EA0C0F08BF52
:104AF00095EA0C0F3FF43BAF94EA0C0F0AD150EA51
:104B000001347FF434AF95EA0C0F7FF425AF1046E3
:104B100019462CE795EA0C0F06D152EA03353FF40B
:104B2000FDAE1046194622E750EA410618BF52EA88
:104B300043067FF4C5AE50EA41047FF40DAF52EA5C
:104B400043057FF4EBAE12E74FF0FF3C06E000BFF9
:104B50004FF0010C02E000BF4FF0010C4DF804CD06
:104B60004FEA410C7FEA6C5C4FEA430C18BF7FEAC6
:104B70006C5C1BD001B050EA410C0CBF52EA430CF4
:104B800091EA030F02BF90EA020F0020704710F174
:104B9000000F91EA030F58BF994208BF90422CBF03
:104BA000D8176FEAE37040F0010070474FEA410CFC
:104BB0007FEA6C5C02D150EA013C07D14FEA430C1A
:104BC0007FEA6C5CD6D152EA033CD3D05DF8040B8B
:104BD000704700BF8446104662468C4619466346BD
:104BE00000E000BF01B5FFF7B7FF002848BF10F194
:104BF000000F01BD4DF808EDFFF7F4FF0CBF0120D9
:104C000000205DF808FB00BF4DF808EDFFF7EAFF54
:104C100034BF012000205DF808FB00BF4DF808ED0F
:104C2000FFF7E0FF94BF012000205DF808FB00BF04
:104C30004DF808EDFFF7CEFF94BF012000205DF88E
:104C400008FB00BF4DF808EDFFF7C4FF34BF01209B
:104C500000205DF808FB00BF00B50A4C2668054639
:104C600085B01C46F06852B1074B02928DE80A00ED
:104C700022462B46054900F00DF802F003FE044BD6
:104C80001A46F2E73804402090AD4000A0AD400045
:104C90009CAD40000EB410B583B005AB064C53F884
:104CA000042B01930146206800F09EFA03B0BDE892
:104CB000104003B0704700BF3804402070B50F4E5D
:104CC0000F4D761BB61018BF002405D0013455F8DF
:104CD000043B9847A642F9D10A4E0B4D761B06F0CD
:104CE00049F9B61018BF002406D0013455F8043B2A
:104CF0009847A642F9D170BD70BD00BF80AF40009B
:104D000080AF400088AF400080AF4000844641EA59
:104D1000000313F003036DD1403A41D351F8043B33
:104D200040F8043B51F8043B40F8043B51F8043B85
:104D300040F8043B51F8043B40F8043B51F8043B75
:104D400040F8043B51F8043B40F8043B51F8043B65
:104D500040F8043B51F8043B40F8043B51F8043B55
:104D600040F8043B51F8043B40F8043B51F8043B45
:104D700040F8043B51F8043B40F8043B51F8043B35
:104D800040F8043B51F8043B40F8043B51F8043B25
:104D900040F8043B51F8043B40F8043B403ABDD294
:104DA000303211D351F8043B40F8043B51F8043B36
:104DB00040F8043B51F8043B40F8043B51F8043BF5
:104DC00040F8043B103AEDD20C3205D351F8043BC5
:104DD00040F8043B043AF9D2043208D0D2071CBF91
:104DE00011F8013B00F8013B01D30B8803806046BA
:104DF000704700BF082A13D38B078DD010F0030330
:104E00008AD0C3F10403D21ADB071CBF11F8013B9F
:104E100000F8013B80D331F8023B20F8023B7BE7EE
:104E2000043AD9D3013A11F8013B00F8013BF9D219
:104E30000B7803704B7843708B78837060467047B3
:104E400070B4840746D0541E002A41D0CDB2034628
:104E500002E0621EE4B3144603F8015B9A07F8D13E
:104E6000032C2ED9CDB245EA05250F2C45EA054580
:104E700019D903F110022646103E0F2E42F8105C9D
:104E800042F80C5C42F8085C42F8045C02F1100243
:104E9000F2D8A4F1100222F00F0204F00F04103235
:104EA000032C13440DD91E462246043A032A46F821
:104EB000045BFAD8221F22F003020432134404F0E8
:104EC00003042CB1C9B21C4403F8011BA342FBD15B
:104ED00070BC704714460346C2E700BF0FB400B56C
:104EE000074983B004AB086853F8042B8168019329
:104EF00001F0AEF803B05DF804EB04B0704700BFFA
:104F0000380440202DE9F043514C256883B0044615
:104F10000F4690461E4615B1AB6B002B79D0B8F109
:104F2000020F04D0B8F1010F7FD8002E7DDB21469F
:104F3000284603F019FD216B41B104F14003994269
:104F400002D0284603F06EFE00232363B4F90C3030
:104F50000022A26162601A0654D423F44A6323F04B
:104F60000303B8F1020FA38139D001AB6A46214691
:104F7000284604F0F9F8A3891843A08126B327B383
:104F8000AB6B002B4DD0009BB4F90C0027609E4208
:104F90001CBF40F40060A081B8F1010F08BF40F0D1
:104FA000010083B208BFA08103F0080080B227612E
:104FB000666118B313F001002FD000207642A6617D
:104FC000A06003B0BDE8F083009E304604F040F9D5
:104FD000074668B3A38943F08003A381D0E700208C
:104FE00004F1430243F0020300250121A381A560DF
:104FF00022602261616103B0BDE8F083A06003B06C
:10500000BDE8F0832169284603F00CFEB4F90C30AA
:10501000A3E7284603F03CFD81E7A66003B0BDE8A6
:10502000F083284603F034FDADE74FF0FF30E2E7B0
:10503000DDF80090B14506D0484604F009F907466E
:1050400008B14E46C6E7B4F90C304FF0FF30C7E761
:1050500038044020000000000000000000000000B4
:105060000000000000000000000000000000000040
:105070000000000000000000000000000000000030
:1050800090F800F06DE9024520F007016FF0000C88
:1050900010F0070491F820F040F049804FF0000430
:1050A0006FF00700D1E9002391F840F000F108000B
:1050B00082FA4CF2A4FA8CF283FA4CF3A2FA8CF343
:1050C0004BBBD1E9022382FA4CF200F10800A4FAAA
:1050D0008CF283FA4CF3A2FA8CF3E3B9D1E90423FE
:1050E00082FA4CF200F10800A4FA8CF283FA4CF335
:1050F000A2FA8CF37BB9D1E9062301F1200182FAEF
:105100004CF200F10800A4FA8CF283FA4CF3A2FAF4
:105110008CF3002BC6D0002A04BF04301A4612BA02
:10512000B2FA82F2FDE8024500EBD2007047D1E905
:10513000002304F00305C4F100004FEAC50514F094
:10514000040F91F840F00CFA05F562EA05021CBF65
:1051500063EA050362464FF00004A9E74B6E2DE9B0
:10516000F0479C0492462CD5936812683BB30F46D7
:10517000804602F1080919E96000B60817D0043D1D
:10518000002401E0A64210D03A4655F8041F4046DC
:1051900003F0E8FC431C04F10104F3D10023CAF836
:1051A0000830CAF80430BDE8F087DAF80830A3EB1D
:1051B0008603CAF8083009F10809002BDBD100206A
:1051C000ECE703F017FE0023CAF80830CAF80430F1
:1051D000BDE8F08793680BB1FFF7C0BF10B4184665
:1051E000536010BC704700BF2DE9F04FABB01C46B8
:1051F000009190460493059018B1836B002B00F04A
:10520000DE800098B0F90C108AB2950407D4436E82
:1052100041F4005223F400538281436692B2110795
:1052200040F1B180009B1B69002B00F0AC8002F0C4
:105230001A020A2A00F0B58000230DF1680B0293D0
:105240000F930E93CDF834B0DA4698F80030444608
:10525000FBB1252B02D11CE0252B03D014F8013F14
:10526000002BF9D1C8EB04059DB10E9B0F9ACAF82B
:10527000008001332A44072BCAF804500F920E9382
:105280007BDD002A40F02885029B0E922B44DA46F3
:1052900002932378002B00F03E8400214FF000039E
:1052A0004FF0FF328DF82F3004F10108637801923E
:1052B00008460E460C4608F10108A3F12002582AC0
:1052C00000F29383DFE812F04603910391034E034B
:1052D0009103910391039103910391038902670262
:1052E000910380006C029103C601590259025902D0
:1052F0005902590259025902590259029103910364
:1053000091039103910391039103910391039103FD
:10531000CB019103910391039103910391039103B5
:10532000910391039103140291039103910391035B
:105330009103EE02910391031103910391039103F1
:10534000910391039103910391039103910334031A
:105350008A0391039103910367038A0391039103E5
:105360006C039103790395028500E90291039B0286
:105370009103BA029103910353030AF1080A029BB5
:105380002B44029385E70099059802F00DFA002856
:1053900040F05885009B9A8902F01A020A2A7FF48D
:1053A0004BAF0099B1F90E30002BFFF645AF234605
:1053B0004246059800F016FE2BB0BDE8F08F03F0D2
:1053C00067FB1EE76442049346F0040698F8003039
:1053D00071E7302104988DF83010019906944FF050
:1053E000000378228DF82F30002903468DF83120F4
:1053F000046803F104034FF0000546F00202C0F216
:10540000258526F0800654EA050246F0020604933C
:1054100040F0BF84B348019B002B40F01C849946A8
:105420000023019303935F46019B039A9342B8BF05
:1054300013461D46B9F1000F00D0013516F00203E6
:10544000079318BF023516F08403089340F0F182E9
:10545000069B5C1B002C40F3EC82102C40F356851D
:10546000DFF88492DDF838E00F9AD4461023C24664
:105470007046A8464D46DDF8149007E000F1020E94
:105480000CF1080C0846103C102C13DD411C1032A6
:1054900007290F92CCF80050CCF804300E91EDDDC6
:1054A000002A40F0B782103C102C10464FF0010E3D
:1054B000DC46EBDCA94670464546D046E24622442F
:1054C00007280F92CAF80090CAF804400E9000F323
:1054D00075839DF82F300AF1080A00F1010E002BA8
:1054E00040F0B082079B002B00F0C38202320CA96F
:1054F0000223BEF1070F0F92CDF838E08AE80A00C8
:1055000040F37883002A40F00A84089B802B4FF0F8
:10551000010E1046DA4640F0B082069B5C1B002C60
:1055200040F3AB82102CDFF8C49140F30B85D646D4
:105530001023C246A8464D46DDF8149007E000F15E
:10554000020C0EF1080E0846103C102C13DD411C15
:10555000103207290F92CEF80050CEF804300E9189
:10556000EDDD002A40F01583103C102C4FF0010CAB
:105570001046DE46EBDCA9464546D046F2462244BC
:10558000BCF1070F0F92CAF80090CAF80440CDF89A
:1055900038C000F3D283019B03995C1A002C0AF1F6
:1055A000080A0CF1010E604600F36D820399CAF8F7
:1055B00000700A44BEF1070F0F92CAF80410CDF82C
:1055C00038E040F3CE82002A40F03A8370070E9212
:1055D00038D5069B5C1B002C34DDDA46102C40F3DA
:1055E000AB84DFF804910E994F461026DDF8149035
:1055F00006E0881C0AF1080A1946103C102C13DD3D
:105600004B1C1032072B0F92CAF80070CAF80460C6
:105610000E93EEDD002A40F08E82103C102C4FF0ED
:1056200001001146DA46EBDCB946224407280F9206
:10563000CAF80090CAF804400E9040F39B82002AFA
:1056400040F02584029B069AAA42ACBF9B185B19C6
:10565000029399E246F0800698F800302BE6069413
:10566000002940F0AF8446F01006B30640F11283E3
:105670000499073121F00701D1E900230831049191
:1056800014461D46002A73F10003C0F28683019B75
:105690009DF82F90002BC0F21A8354EA050326F0E0
:1056A000800600F0ED80002D08BF0A2CC0F0ED80D0
:1056B0005F46204629460A22002305F0E9F83032E9
:1056C00007F8012D2046294600230A2205F0E0F8BC
:1056D00004460D4654EA0503EBD1C7EB0B030393D5
:1056E000A2E600BFFCAD400018AE4000D8AD4000BF
:1056F0000694002940F0628446F0100616F020035C
:1057000000F0AE82049B073323F007034FF0000242
:105710008DF82F20D3E9004503F10802019B049284
:10572000002BC0F2748154EA050326F0800640F095
:105730006E81019B002B00F030844FF000090024A3
:1057400000255F46E20842EA4572E90804F00703D3
:105750000D461446303354EA050207F8013DF1D1F5
:10576000F407BAD5302BB8D030227B1E07F8012CB5
:10577000C3EB0B0203921F4656E6A3F1300200244E
:1057800018F8013B04EB840402EB4404A3F130025B
:10579000092AF5D991E598F8003001212B208AE5F6
:1057A00098F800302A2B08F1010500F0DD83A3F101
:1057B0003002092AA84698BF002500F2CE8318F8C7
:1057C000013B05EB850502EB4505A3F13002092AF3
:1057D000F5D945EAE57201926FE5049A146813461B
:1057E000002C03F10403FFF6EDAD049398F80030AC
:1057F00061E50694002981D08DF82F007EE7049A98
:10580000069417684FF000038DF82F30141D019B8C
:10581000002F00F08683002BC0F25F831A46002120
:10582000384603F0D5FF002800F08F83C31B039395
:10583000002304949DF82F900193F5E50694002928
:1058400040F0B98316F0200935D116F0100303D1CA
:1058500016F0400940F02A83049A13461468019A0E
:105860008DF82F90002A03F104034FF00005C0F2D9
:10587000328354EA050226F0800604937FF413AFC6
:10588000019B002B3FF4CCAD00242AAF303407F845
:10589000414DC7EB0B030393C6E546F0200698F88D
:1058A000003008E50694002940F06E8346F01006AB
:1058B00016F02009C9D0049B073323F007034FF0EB
:1058C00000028DF82F20D3E9004503F10802019B67
:1058D0000492002BC0F2F98154EA050326F08006F9
:1058E0004FF000097FF4DFAECAE70694002940F0CC
:1058F0005183B206AE4841D5049A073222F007021E
:10590000D2E9004502F10801049116F0010900F006
:10591000778154EA050240F026824FF000038DF8AB
:105920002F30019B002BC0F2968126F0800672E595
:10593000049A069413688DF8403013464FF0000126
:10594000012504338DF82F100493039510AF002325
:10595000019373E598F8003000287FF4ACAC012186
:105960002020A8E446F0010698F80030A3E406944D
:10597000002940F00C83B2068E48BDD40499F70686
:105980000A4600F19D81750640F19A8104320C8827
:1059900004920025B9E746F0400698F800308AE402
:1059A00098F800306C2B03BF98F8013046F02006C1
:1059B00008F1010846F010067DE4002940F0098353
:1059C000B40640F11C82049A02991368CD17084668
:1059D000043229460492C3E9000136E40694002902
:1059E0003FF443AE8DF82F003FE60694002940F0C7
:1059F000ED82002B00F08F8001258DF840304FF0B4
:105A000000038DF82F30039510AFA0E704934FF0FB
:105A1000000996E60DAA009909934846FFF79EFBF8
:105A200000287FD10E980F9A099B00F1010EDC46E9
:105A300029E50E980F9A00F1010E9DF82F30002BEA
:105A40003FF450AD01320DF12F010123BEF1070FDC
:105A50000F92CDF838E08AE80A0040F3BF80002AB0
:105A600040F04E810799002940F0BE809E461046C6
:105A7000DA46089B802B3FF450AD019B03995C1ADA
:105A8000002C7FF793AD102CDFF82C9125DDD44648
:105A90001023C246A8464D46DDF8149007E000F1F9
:105AA000020E0CF1080C0846103C102C11DD411CB4
:105AB000103207290F92CCF80050CCF804300E9128
:105AC000EDDDD2B9103C102C4FF0010E1046DC4633
:105AD000EDDCA9464546D046E2462244BEF1070F1A
